{
  "_format": "hh-sol-artifact-1",
  "contractName": "EscrowUPI",
  "sourceName": "contracts/EscortContract.sol",
  "abi": [
    {
      "inputs": [],
      "stateMutability": "nonpayable",
      "type": "constructor"
    },
    {
      "anonymous": false,
      "inputs": [
        {
          "indexed": true,
          "internalType": "uint256",
          "name": "escrowId",
          "type": "uint256"
        }
      ],
      "name": "EscrowCancelled",
      "type": "event"
    },
    {
      "anonymous": false,
      "inputs": [
        {
          "indexed": true,
          "internalType": "uint256",
          "name": "escrowId",
          "type": "uint256"
        },
        {
          "indexed": false,
          "internalType": "address",
          "name": "buyer",
          "type": "address"
        },
        {
          "indexed": false,
          "internalType": "address",
          "name": "seller",
          "type": "address"
        },
        {
          "indexed": false,
          "internalType": "uint256",
          "name": "amount",
          "type": "uint256"
        }
      ],
      "name": "EscrowCreated",
      "type": "event"
    },
    {
      "anonymous": false,
      "inputs": [
        {
          "indexed": true,
          "internalType": "uint256",
          "name": "escrowId",
          "type": "uint256"
        }
      ],
      "name": "EscrowRefunded",
      "type": "event"
    },
    {
      "anonymous": false,
      "inputs": [
        {
          "indexed": true,
          "internalType": "uint256",
          "name": "escrowId",
          "type": "uint256"
        }
      ],
      "name": "EscrowReleased",
      "type": "event"
    },
    {
      "inputs": [],
      "name": "admin",
      "outputs": [
        {
          "internalType": "address",
          "name": "",
          "type": "address"
        }
      ],
      "stateMutability": "view",
      "type": "function"
    },
    {
      "inputs": [
        {
          "internalType": "uint256",
          "name": "_escrowId",
          "type": "uint256"
        }
      ],
      "name": "cancelEscrow",
      "outputs": [],
      "stateMutability": "nonpayable",
      "type": "function"
    },
    {
      "inputs": [
        {
          "internalType": "address",
          "name": "_newAdmin",
          "type": "address"
        }
      ],
      "name": "changeAdmin",
      "outputs": [],
      "stateMutability": "nonpayable",
      "type": "function"
    },
    {
      "inputs": [
        {
          "internalType": "address payable",
          "name": "_seller",
          "type": "address"
        }
      ],
      "name": "createEscrow",
      "outputs": [
        {
          "internalType": "uint256",
          "name": "",
          "type": "uint256"
        }
      ],
      "stateMutability": "payable",
      "type": "function"
    },
    {
      "inputs": [],
      "name": "escrowCount",
      "outputs": [
        {
          "internalType": "uint256",
          "name": "",
          "type": "uint256"
        }
      ],
      "stateMutability": "view",
      "type": "function"
    },
    {
      "inputs": [
        {
          "internalType": "uint256",
          "name": "",
          "type": "uint256"
        }
      ],
      "name": "escrows",
      "outputs": [
        {
          "internalType": "address payable",
          "name": "buyer",
          "type": "address"
        },
        {
          "internalType": "address payable",
          "name": "seller",
          "type": "address"
        },
        {
          "internalType": "uint256",
          "name": "amount",
          "type": "uint256"
        },
        {
          "internalType": "enum EscrowUPI.EscrowStatus",
          "name": "status",
          "type": "uint8"
        },
        {
          "internalType": "uint256",
          "name": "createdAt",
          "type": "uint256"
        }
      ],
      "stateMutability": "view",
      "type": "function"
    },
    {
      "inputs": [
        {
          "internalType": "uint256",
          "name": "_escrowId",
          "type": "uint256"
        }
      ],
      "name": "refundBuyer",
      "outputs": [],
      "stateMutability": "nonpayable",
      "type": "function"
    },
    {
      "inputs": [
        {
          "internalType": "uint256",
          "name": "_escrowId",
          "type": "uint256"
        }
      ],
      "name": "releasePayment",
      "outputs": [],
      "stateMutability": "nonpayable",
      "type": "function"
    }
  ],
  "bytecode": "0x608060405234801561001057600080fd5b5033600160006101000a81548173ffffffffffffffffffffffffffffffffffffffff021916908373ffffffffffffffffffffffffffffffffffffffff160217905550611470806100616000396000f3fe60806040526004361061007b5760003560e01c80638f2839701161004e5780638f2839701461013e578063e018243614610167578063f6a8419e14610190578063f851a440146101c05761007b565b8063012f52ee1461008057806339292763146100c1578063675ac67a146100ea57806388685cd914610115575b600080fd5b34801561008c57600080fd5b506100a760048036038101906100a29190610cba565b6101eb565b6040516100b8959493929190610dae565b60405180910390f35b3480156100cd57600080fd5b506100e860048036038101906100e39190610cba565b61026e565b005b3480156100f657600080fd5b506100ff6104d0565b60405161010c9190610e01565b60405180910390f35b34801561012157600080fd5b5061013c60048036038101906101379190610cba565b6104d6565b005b34801561014a57600080fd5b5061016560048036038101906101609190610e5a565b610738565b005b34801561017357600080fd5b5061018e60048036038101906101899190610cba565b61087b565b005b6101aa60048036038101906101a59190610eb3565b6109f8565b6040516101b79190610e01565b60405180910390f35b3480156101cc57600080fd5b506101d5610c59565b6040516101e29190610eef565b60405180910390f35b60026020528060005260406000206000915090508060000160009054906101000a900473ffffffffffffffffffffffffffffffffffffffff16908060010160009054906101000a900473ffffffffffffffffffffffffffffffffffffffff16908060020154908060030160009054906101000a900460ff16908060040154905085565b600160009054906101000a900473ffffffffffffffffffffffffffffffffffffffff1673ffffffffffffffffffffffffffffffffffffffff163373ffffffffffffffffffffffffffffffffffffffff16146102fe576040517f08c379a00000000000000000000000000000000000000000000000000000000081526004016102f590610f67565b60405180910390fd5b60006002600083815260200190815260200160002090506000600481111561032957610328610d37565b5b8160030160009054906101000a900460ff16600481111561034d5761034c610d37565b5b1461038d576040517f08c379a000000000000000000000000000000000000000000000000000000000815260040161038490610fd3565b60405180910390fd5b60038160030160006101000a81548160ff021916908360048111156103b5576103b4610d37565b5b02179055506000816002015490506000826002018190555060008260000160009054906101000a900473ffffffffffffffffffffffffffffffffffffffff1673ffffffffffffffffffffffffffffffffffffffff168260405161041790611024565b60006040518083038185875af1925050503d8060008114610454576040519150601f19603f3d011682016040523d82523d6000602084013e610459565b606091505b505090508061049d576040517f08c379a000000000000000000000000000000000000000000000000000000000815260040161049490611085565b60405180910390fd5b837f2babb5cd458b6d41108d6d793a75e29ca524e7caa20e2da6c994462010920a7260405160405180910390a250505050565b60005481565b600160009054906101000a900473ffffffffffffffffffffffffffffffffffffffff1673ffffffffffffffffffffffffffffffffffffffff163373ffffffffffffffffffffffffffffffffffffffff1614610566576040517f08c379a000000000000000000000000000000000000000000000000000000000815260040161055d90610f67565b60405180910390fd5b60006002600083815260200190815260200160002090506000600481111561059157610590610d37565b5b8160030160009054906101000a900460ff1660048111156105b5576105b4610d37565b5b146105f5576040517f08c379a00000000000000000000000000000000000000000000000000000000081526004016105ec906110f1565b60405180910390fd5b60028160030160006101000a81548160ff0219169083600481111561061d5761061c610d37565b5b02179055506000816002015490506000826002018190555060008260010160009054906101000a900473ffffffffffffffffffffffffffffffffffffffff1673ffffffffffffffffffffffffffffffffffffffff168260405161067f90611024565b60006040518083038185875af1925050503d80600081146106bc576040519150601f19603f3d011682016040523d82523d6000602084013e6106c1565b606091505b5050905080610705576040517f08c379a00000000000000000000000000000000000000000000000000000000081526004016106fc9061115d565b60405180910390fd5b837f69833829d5691ae09424af7d16f73adf033451149ea9c2fc6fcb4c44108eef6760405160405180910390a250505050565b600160009054906101000a900473ffffffffffffffffffffffffffffffffffffffff1673ffffffffffffffffffffffffffffffffffffffff163373ffffffffffffffffffffffffffffffffffffffff16146107c8576040517f08c379a00000000000000000000000000000000000000000000000000000000081526004016107bf90610f67565b60405180910390fd5b600073ffffffffffffffffffffffffffffffffffffffff168173ffffffffffffffffffffffffffffffffffffffff1603610837576040517f08c379a000000000000000000000000000000000000000000000000000000000815260040161082e906111c9565b60405180910390fd5b80600160006101000a81548173ffffffffffffffffffffffffffffffffffffffff021916908373ffffffffffffffffffffffffffffffffffffffff16021790555050565b600160009054906101000a900473ffffffffffffffffffffffffffffffffffffffff1673ffffffffffffffffffffffffffffffffffffffff163373ffffffffffffffffffffffffffffffffffffffff161461090b576040517f08c379a000000000000000000000000000000000000000000000000000000000815260040161090290610f67565b60405180910390fd5b60006002600083815260200190815260200160002090506000600481111561093657610935610d37565b5b8160030160009054906101000a900460ff16600481111561095a57610959610d37565b5b1461099a576040517f08c379a000000000000000000000000000000000000000000000000000000000815260040161099190611235565b60405180910390fd5b60048160030160006101000a81548160ff021916908360048111156109c2576109c1610d37565b5b0217905550817f0d977c6b1a383ac5ce532b4a668d0ef9ad38478e1a5ff28abb221f4b682b264360405160405180910390a25050565b6000803411610a3c576040517f08c379a0000000000000000000000000000000000000000000000000000000008152600401610a33906112a1565b60405180910390fd5b600073ffffffffffffffffffffffffffffffffffffffff168273ffffffffffffffffffffffffffffffffffffffff1603610aab576040517f08c379a0000000000000000000000000000000000000000000000000000000008152600401610aa29061130d565b60405180910390fd5b600080815480929190610abd9061135c565b91905055506040518060a001604052803373ffffffffffffffffffffffffffffffffffffffff1681526020018373ffffffffffffffffffffffffffffffffffffffff16815260200134815260200160006004811115610b1f57610b1e610d37565b5b815260200142815250600260008054815260200190815260200160002060008201518160000160006101000a81548173ffffffffffffffffffffffffffffffffffffffff021916908373ffffffffffffffffffffffffffffffffffffffff16021790555060208201518160010160006101000a81548173ffffffffffffffffffffffffffffffffffffffff021916908373ffffffffffffffffffffffffffffffffffffffff1602179055506040820151816002015560608201518160030160006101000a81548160ff02191690836004811115610bff57610bfe610d37565b5b0217905550608082015181600401559050506000547f9405ad0a6208539879349284d71265479b1623846f70303da1f9890d6e8c10a7338434604051610c4793929190611403565b60405180910390a26000549050919050565b600160009054906101000a900473ffffffffffffffffffffffffffffffffffffffff1681565b600080fd5b6000819050919050565b610c9781610c84565b8114610ca257600080fd5b50565b600081359050610cb481610c8e565b92915050565b600060208284031215610cd057610ccf610c7f565b5b6000610cde84828501610ca5565b91505092915050565b600073ffffffffffffffffffffffffffffffffffffffff82169050919050565b6000610d1282610ce7565b9050919050565b610d2281610d07565b82525050565b610d3181610c84565b82525050565b7f4e487b7100000000000000000000000000000000000000000000000000000000600052602160045260246000fd5b60058110610d7757610d76610d37565b5b50565b6000819050610d8882610d66565b919050565b6000610d9882610d7a565b9050919050565b610da881610d8d565b82525050565b600060a082019050610dc36000830188610d19565b610dd06020830187610d19565b610ddd6040830186610d28565b610dea6060830185610d9f565b610df76080830184610d28565b9695505050505050565b6000602082019050610e166000830184610d28565b92915050565b6000610e2782610ce7565b9050919050565b610e3781610e1c565b8114610e4257600080fd5b50565b600081359050610e5481610e2e565b92915050565b600060208284031215610e7057610e6f610c7f565b5b6000610e7e84828501610e45565b91505092915050565b610e9081610d07565b8114610e9b57600080fd5b50565b600081359050610ead81610e87565b92915050565b600060208284031215610ec957610ec8610c7f565b5b6000610ed784828501610e9e565b91505092915050565b610ee981610e1c565b82525050565b6000602082019050610f046000830184610ee0565b92915050565b600082825260208201905092915050565b7f4f6e6c792061646d696e00000000000000000000000000000000000000000000600082015250565b6000610f51600a83610f0a565b9150610f5c82610f1b565b602082019050919050565b60006020820190508181036000830152610f8081610f44565b9050919050565b7f496e76616c696420737461746500000000000000000000000000000000000000600082015250565b6000610fbd600d83610f0a565b9150610fc882610f87565b602082019050919050565b60006020820190508181036000830152610fec81610fb0565b9050919050565b600081905092915050565b50565b600061100e600083610ff3565b915061101982610ffe565b600082019050919050565b600061102f82611001565b9150819050919050565b7f526566756e64206661696c656400000000000000000000000000000000000000600082015250565b600061106f600d83610f0a565b915061107a82611039565b602082019050919050565b6000602082019050818103600083015261109e81611062565b9050919050565b7f4e6f742070656e64696e67000000000000000000000000000000000000000000600082015250565b60006110db600b83610f0a565b91506110e6826110a5565b602082019050919050565b6000602082019050818103600083015261110a816110ce565b9050919050565b7f5472616e73666572206661696c65640000000000000000000000000000000000600082015250565b6000611147600f83610f0a565b915061115282611111565b602082019050919050565b600060208201905081810360008301526111768161113a565b9050919050565b7f496e76616c696400000000000000000000000000000000000000000000000000600082015250565b60006111b3600783610f0a565b91506111be8261117d565b602082019050919050565b600060208201905081810360008301526111e2816111a6565b9050919050565b7f416c72656164792070726f636573736564000000000000000000000000000000600082015250565b600061121f601183610f0a565b915061122a826111e9565b602082019050919050565b6000602082019050818103600083015261124e81611212565b9050919050565b7f416d6f756e74203e203000000000000000000000000000000000000000000000600082015250565b600061128b600a83610f0a565b915061129682611255565b602082019050919050565b600060208201905081810360008301526112ba8161127e565b9050919050565b7f496e76616c69642073656c6c6572000000000000000000000000000000000000600082015250565b60006112f7600e83610f0a565b9150611302826112c1565b602082019050919050565b60006020820190508181036000830152611326816112ea565b9050919050565b7f4e487b7100000000000000000000000000000000000000000000000000000000600052601160045260246000fd5b600061136782610c84565b91507fffffffffffffffffffffffffffffffffffffffffffffffffffffffffffffffff82036113995761139861132d565b5b600182019050919050565b6000819050919050565b60006113c96113c46113bf84610ce7565b6113a4565b610ce7565b9050919050565b60006113db826113ae565b9050919050565b60006113ed826113d0565b9050919050565b6113fd816113e2565b82525050565b60006060820190506114186000830186610ee0565b61142560208301856113f4565b6114326040830184610d28565b94935050505056fea26469706673582212206bf13155e2e2b0b6b59dccb031201f5f789a148280620de5410ef9a73839edd764736f6c63430008130033",
  "linkReferences": {},
  "deployedLinkReferences": {}
}